:100000000C9434000C9446000C9446000C9446006A
:100010000C9446000C9446000C9446000C94460048
:100020000C9446000C9446000C9446000C94460038
:100030000C9446000C9446000C9446000C94460028
:100040000C9446000C9446000C9446000C94460018
:100050000C9446000C9446000C9446000C94460008
:100060000C9446000C94460011241FBECFEFD8E03C
:10007000DEBFCDBF21E0A0E0B1E001C01D92A730FE
:10008000B207E1F70E9463000C949E000C940000FC
:100090008093C4009093C50086E48093C20088EDED
:1000A0008093C10008958091C00087FFFCCF8091AC
:1000B000C6000895FC019091C00095FFFCCF80819F
:1000C0008093C600089587E68093C4001092C5000F
:1000D00086E48093C20088ED8093C10084B18D6175
:1000E00084B9219837E626E498ED47E53093C400BB
:1000F0001092C5002093C2009093C1008091C0006F
:1001000087FFFCCF8091C60080930401813461F0A9
:10011000823461F72A982C982B9A8091C00085FF31
:10012000FCCF4093C600E2CF2A9A2C9A2B9880915C
:10013000C00085FFFCCF4093C600D8CFF894FFCF16
:00000001FF
