:100000000C9463000C948B000C948B000C941C05D6
:100010000C941C050C941C050C948B000C948B0008
:100020000C948B000C948B000C948B000C948B0024
:100030000C948B000C948B000C948B000C948B0014
:100040000C94D2040C948B000C94A0040C947A04AD
:100050000C948B000C948B000C948B000C948B00F4
:100060000C948B000C948B000000000024002700EF
:100070002A0000000008000201000003040700003D
:1000800000000000000000000000230026002900FE
:1000900000000000250028002B00040404040404D0
:1000A0000404020202020202030303030303010227
:1000B00004081020408001020408102001020408F6
:1000C000102056062D0A11241FBECFEFD8E0DEBF48
:1000D000CDBF22E0ACEBB1E001C01D92A03CB20765
:1000E000E1F711E0A0E0B1E0ECEDF9E102C005902C
:1000F0000D92AC3BB107D9F710E0C2E6D0E004C0E6
:100100002197FE010E94DA0AC136D107C9F70E9481
:1001100030070C94E10C0C94000008958091AE021D
:100120009091AF02009741F0DC01ED91FC910284C7
:10013000F385E02D0995089580E008958091AE0241
:100140009091AF02009751F0DC01ED91FC91008499
:10015000F185E02D099521E0892B09F420E0822F1B
:100160000895A091AE02B091AF02109749F0ED91C1
:10017000FC9111970190F081E02D682FCD01099439
:100180000895AF92BF92CF92DF92EF92FF920F93BA
:100190001F93CF93DF936C017B018B01040F151F1D
:1001A000EB015E01AE18BF08C017D10759F0699185
:1001B000D601ED91FC910190F081E02DC6010995E9
:1001C000892B79F7C501DF91CF911F910F91FF9096
:1001D000EF90DF90CF90BF90AF900895FC01538DCA
:1001E000448D252F30E0842F90E0821B930B541711
:1001F00010F0CF96089501970895FC01918D828D9E
:10020000981761F0A28DAE0FBF2FB11D5D968C9136
:10021000928D9F5F9F73928F90E008958FEF9FEF75
:100220000895FC01918D828D981731F0828DE80F31
:10023000F11D858D90E008958FEF9FEF0895FC01EB
:10024000918D228D892F90E0805C9F4F821B9109B8
:100250008F73992708958BE092E00E941F0121E09F
:10026000892B09F420E0822F089580E090E0892B0B
:1002700029F00E942B0181110C9400000895FC01CB
:10028000A48DA80FB92FB11DA35ABF4F2C91848DF7
:1002900090E001968F739927848FA689B7892C9354
:1002A000A089B1898C91837080648C93938D848DA7
:1002B000981306C00288F389E02D80818F7D8083AA
:1002C0000895EF92FF920F931F93CF93DF93EC016A
:1002D00081E0888F9B8D8C8D98131AC0E889F989ED
:1002E000808185FF15C09FB7F894EE89FF896083F0
:1002F000E889F98980818370806480839FBF81E071
:1003000090E0DF91CF911F910F91FF90EF900895B2
:10031000F62E0B8D10E00F5F1F4F0F731127E02E8D
:100320008C8D8E110CC00FB607FCFACFE889F989C5
:10033000808185FFF5CFCE010E943F01F1CFEB8D8B
:10034000EC0FFD2FF11DE35AFF4FF0829FB7F89499
:100350000B8FEA89FB8980818062CFCFCF93DF93B7
:10036000EC01888D8823B9F0AA89BB89E889F989CD
:100370008C9185FD03C0808186FD0DC00FB607FC02
:10038000F7CF8C9185FFF2CF808185FFEDCFCE0135
:100390000E943F01E9CFDF91CF9108952FB7F894E4
:1003A0006091010270910202809103029091040217
:1003B0002FBF0895209107023091080228173907AE
:1003C00071F49091050280910602981741F0E09136
:1003D0000502F0E0E454FE4F808190E008958FEF35
:1003E0009FEF08950895EF92FF920F931F93CF937D
:1003F000DF93DC015C96ED90FC905D97E114F104D5
:1004000079F481E090E013969C938E93129790E09C
:1004100080E0DF91CF911F910F91FF90EF900895B1
:100420005196ED91FC91529750968C915097982F40
:1004300090950FB75E962C915E97122F127021FD4A
:100440006095F8942081112319F1282B2083E7016E
:100450002197F1F728E0462F50E0308160FF1AC065
:10046000382B3083E7012197F1F7BA01759567952D
:10047000215089F7112381F08081892380830FBF68
:100480005C968D919C910197F1F781E090E0C1CF4E
:100490002923DCCF3923E5CF9081892BEFCF209121
:1004A0000702309108022817390771F4809106027B
:1004B0002091050290E0805C9F4F821B910960E4CF
:1004C00070E00E94B20A089590E080E008952091C3
:1004D00007023091080228173907B9F490910502F4
:1004E00080910602981789F0E0910502F0E0E4544B
:1004F000FE4F80812091050230E02F5F3F4F2F7328
:1005000033272093050290E008958FEF9FEF089521
:1005100090E080E00895CF93DF93FC0101900020EC
:10052000E9F73197AF01481B590BBC018BE092E012
:100530000E94C100EC0142E050E06AE271E08BE011
:1005400092E00E94C1008C0F9D1FDF91CF91089512
:10055000CF93DF93EC018091A8029091A9020097BC
:10056000E9F06881798161157105B1F04091AA02C5
:100570005091AB022C813D814217530768F00E94D5
:10058000CB0C8C819D819093AD028093AC021D8237
:100590001C82DF91CF9108950E947C0B8881998104
:1005A0009093A9028093A8028A819B819093AB02C9
:1005B0008093AA028C819D819093AD028093AC02BE
:1005C000198218821B821A82E2CFCF93DF93EC014B
:1005D00088819981009711F00E947C0B1982188202
:1005E0001D821C821B821A82DF91CF910895FC012B
:1005F00080819181009711F00C947C0B0895CF922B
:10060000DF92EF92FF920F931F93CF93DF93CDB7BB
:10061000DEB7EB970FB6F894DEBF0FBECDBFFC017F
:10062000C480D580FBE3CF16D10408F051C0E09020
:10063000B1022E2D2150330B79016217730708F494
:100640007B0126E0EE0CFF1C2A95E1F78E010F5F7F
:100650001F4F2BE3F80111922A95E9F7C114D10439
:1006600059F0FC0160817181A601C8010E94D20C81
:10067000F801EC0DFD1D108290E080E0E091B402E5
:10068000F091B502E80FF91FEE0DFF1D10820196E3
:100690008430910599F7E091B402F091B502EE0D26
:1006A000FF1DC394C4829E01245C3F4FF801801B50
:1006B000910B4191A091B402B091B502AE0DBF1D56
:1006C000AE0FBF1FA80FB91F4C932E173F0789F716
:1006D000EB960FB6F894DEBF0FBECDBFDF91CF9182
:1006E0001F910F91FF90EF90DF90CF9008950F939F
:1006F0001F93CF93DF93EC0188819981009759F084
:100700002A813B812617370730F081E0DF91CF91B6
:100710001F910F9108958B016F5F7F4F0E94050C11
:10072000009759F0998388831B830A832C813D812C
:10073000232B59F7FC011082E8CF80E0E7CF0F931D
:100740001F93CF93DF93EC010C811D810F5F1F4F2F
:10075000B8010E947703882391F0288139818C8128
:100760009D816DE271E0820F931F0E94CB0C1D836F
:100770000C83CE01DF91CF911F910F910895CE018F
:100780000E94E502F6CFEF92FF920F931F93CF9353
:10079000DF93EC01FB01E080F180E114F10411F141
:1007A0000481158101151105A9F08C819D81080F27
:1007B000191FB801CE010E947703882399F0288180
:1007C00039818C819D81B701820F931F0E94CB0CD0
:1007D0001D830C83CE01DF91CF911F910F91FF906C
:1007E000EF900895CE010E94E502F4CFEF92FF92C0
:1007F0000F931F93CF93DF93EC017B018A01BA0122
:100800000E94770381110BC0CE010E94E502CE0148
:10081000DF91CF911F910F91FF90EF9008951D836D
:100820000C83B701888199810E94CB0CF0CFEF92A5
:10083000FF920F931F93CF93DF93CDB7DEB76297ED
:100840000FB6F894DEBF0FBECDBF8C01CB01F8010F
:100850001182108213821282158214824AE09E0154
:100860002F5F3F4F7901B9010E943A0AF7010190C9
:100870000020E9F73197AF014E195F09B701C801B0
:100880000E94F60362960FB6F894DEBF0FBECDBF8E
:10089000DF91CF911F910F91FF90EF900895FB0191
:1008A000DC0111961C921E9213961C921E921297B6
:1008B00015961C921E9214978617970749F060812F
:1008C00071816115710521F0448155810C94F60305
:1008D0000895FC0111821082138212821582148203
:1008E000FB0101900020E9F73197AF01461B570B40
:1008F0000C94F6031F920F920FB60F9211242F93B0
:100900003F934F935F936F937F938F939F93AF9397
:10091000BF93EF93FF938BE092E00E943F01FF9122
:10092000EF91BF91AF919F918F917F916F915F9167
:100930004F913F912F910F900FBE0F901F901895E0
:100940001F920F920FB60F9211242F938F939F93A4
:10095000EF93FF93E0911B02F0911C028081E091E4
:100960002102F091220282FD1BC09081809124021D
:100970008F5F8F7320912502821741F0E09124024E
:10098000F0E0E55FFD4F958F80932402FF91EF919A
:100990009F918F912F910F900FBE0F901F901895E0
:1009A0008081F4CF1F920F920FB60F9211242F93D4
:1009B0003F938F939F93AF93BF9380910102909148
:1009C0000202A0910302B09104023091000223E0E0
:1009D000230F2D3758F50196A11DB11D209300025C
:1009E0008093010290930202A0930302B093040249
:1009F0008091FC019091FD01A091FE01B091FF0159
:100A00000196A11DB11D8093FC019093FD01A0935F
:100A1000FE01B093FF01BF91AF919F918F913F91E4
:100A20002F910F900FBE0F901F90189526E8230F5F
:100A30000296A11DB11DD2CF1F920F920FB60F9239
:100A400011242F933F934F935F936F937F938F93D3
:100A50009F93AF93BF93EF93FF93E0910702F091C1
:100A60000802309749F0A685B7858585968D91FF58
:100A700014C09C918923A1F4FF91EF91BF91AF9194
:100A80009F918F917F916F915F914F913F912F91A6
:100A90000F900FBE0F901F9018959C91892361F7BE
:100AA000A389B4899C918589809589238C938689B3
:100AB00097890197F1F7608D718DA685B78555856A
:100AC00038E020E0CB010197F1F7822F90E0959577
:100AD0008795282F4C91452309F02068315091F7D4
:100AE000868D81FD20958091060290E001968F739E
:100AF000992730910502381799F0A0910602B0E0CD
:100B0000A454BE4F2C9380930602828D938D01973F
:100B1000F1F7A389B4898C919589892B8C93ACCFFB
:100B2000868D8160868FF1CFCF92DF92EF92FF9218
:100B30000F931F93E82FF92F05C0015011092109C8
:100B4000310961F1908196239417B9F305C00150E2
:100B500011092109310911F1908196239413F7CFDE
:100B6000C12CD12CE12CF12C0AC08FEFC81AD80A65
:100B7000E80AF80A0C151D052E053F0579F080815D
:100B80008623841791F36C2D7D2D8E2D9F2D1F9123
:100B90000F91FF90EF90DF90CF90089560E070E0AC
:100BA00080E090E01F910F91FF90EF90DF90CF9049
:100BB000089590E0FC01EE58FF4F2491FC01E255AE
:100BC000FF4F3491FC01E656FF4FE491EE23C9F04C
:100BD000222339F0233001F1A8F4213019F1223019
:100BE00029F1F0E0EE0FFF1FE057FF4FA591B49100
:100BF0008FB7F894EC91611126C030953E233C9359
:100C00008FBF08952730A9F02830C9F0243049F764
:100C1000809180008F7D03C0809180008F778093CA
:100C20008000DFCF84B58F7784BDDBCF84B58F7D27
:100C3000FBCF8091B0008F778093B000D2CF8091AE
:100C4000B0008F7DF9CF3E2BDACFCF93DF9390E0CA
:100C5000FC01E255FF4F249186569F4FFC01849181
:100C60008823D1F090E0880F991FFC01E859FF4FCD
:100C7000A591B491FC01E057FF4FC591D49161114A
:100C80000EC09FB7F8948C91E22FE0958E238C9341
:100C90002881E223E8839FBFDF91CF9108958FB72A
:100CA000F894EC91E22BEC938FBFF6CFCF92DF92CA
:100CB000EF92FF921F93CF93DF9310920E02109248
:100CC0000D0298EEC92E93E0D92EE12CF12CC092A2
:100CD0000F02D0921002E0921102F09212028AE00A
:100CE00091E090930C0280930B0285EC90E090933E
:100CF00018028093170284EC90E090931A0280937C
:100D0000190280EC90E090931C0280931B0281EC0E
:100D100090E090931E0280931D0282EC90E09093ED
:100D2000200280931F0286EC90E090932202809331
:100D30002102109224021092250210922602109293
:100D4000270282E090E00E94E00A2DE030E0FC0102
:100D5000318320832CE030E03093B7022093B60239
:100D60009093B9028093B80281E090E09093BB0227
:100D70008093BA0261E08CE00E942506E091B802FF
:100D8000F091B90260E080810E94250611E0109385
:100D9000B0028AE08093B1028FE190E00E94E00A05
:100DA000EC011B821A82CC82DD82EE82FF828CE112
:100DB00091E0998388831F8A1E8A198E188E1B8E54
:100DC0001A8E1D8E1C8E8E8D8E7F8D7F8E8F81FB59
:100DD000662760F9612783E00E94D90561E083E01E
:100DE0000E942506E1EBF0E0E491E88BEDE9F0E00C
:100DF000E491F0E0EE0FFF1FE057FF4F85919491D3
:100E00009A8B898B60E082E00E9425068E8D81FDA1
:100E100004C061E082E00E94D90582E08C87E0EBAB
:100E2000F0E0E491ED87ECE9F0E0E491F0E0EE0F22
:100E3000FF1FEA57FF4F859194919F878E87D0932C
:100E4000AF02C093AE026CE271E088EA92E0DF91FB
:100E5000CF911F91FF90EF90DF90CF900C94690499
:100E6000CF93DF93CDB7DEB7CC54D1090FB6F8944A
:100E7000DEBF0FBECDBF789484B5826084BD84B5DB
:100E8000816084BD85B5826085BD85B5816085BD85
:100E900080916E00816080936E001092810080913D
:100EA00081008260809381008091810081608093C5
:100EB0008100809180008160809380008091B100EA
:100EC00084608093B1008091B00081608093B00015
:100ED00080917A00846080937A0080917A008260A9
:100EE00080937A0080917A00816080937A0080916B
:100EF0007A00806880937A001092C100E0911B0212
:100F0000F0911C0282E08083E0911702F0911802B8
:100F10001082E0911902F0911A028FEC80831092F6
:100F20002302E0911F02F091200286E08083E0918D
:100F30001D02F0911E02808180618083E0911D027C
:100F4000F0911E02808188608083E0911D02F09103
:100F50001E02808180688083E0911D02F0911E0254
:100F600080818F7D80838091B00220E4829FC001C8
:100F700011240E94E00A9093B3028093B202809100
:100F8000B102A0E48A9FC00111240E94E00A90935C
:100F9000B5028093B402E091AE02F091AF023097B7
:100FA00009F477C0138E128E118E108E178A168A4E
:100FB0008DE991E0958F848F8485863108F03DC05E
:100FC0002DEB30E0378B268B2BE931E0318F208FF2
:100FD0002CE231E0338F228F90916800883008F442
:100FE000E4C021E08E3008F420E081E001C0880FE9
:100FF0002A95EAF7892B8093680094852DE630E0E6
:10100000983050F02BE630E09E3030F02CE630E0A7
:10101000963110F030E020E0348B238B292F30E024
:10102000983008F0C4C081E001C0880F9A95EAF7B3
:10103000858B848D958D0197F1F7828D938D892B0A
:1010400041F14091070250910802E417F50709F1B8
:101050004115510569F0DA0153962D913C91D90162
:101060009C91DA0155968C9180958923D9018C93B6
:10107000868D8E7F868F1092060210920502F09365
:101080000802E0930702A389B4898C919589892B82
:101090008C938FE291E00E948B0284B18D6184B9C0
:1010A0002198FE0131967F015E01F1E4AF0EB11C83
:1010B000DA2CCB2C8BE092E00E941F011816190647
:1010C0000CF0E4C028988FE19EE40197F1F700C08E
:1010D0000000289AAFE3BCE91197F1F700C00000C7
:1010E0002898EFE1FEE43197F1F700C00000EFEA45
:1010F000F0E06491EBE9F0E08491E82FF0E0EE0F8E
:10110000FF1FEA57FF4F8591949100E412E42FE00E
:1011100030E0462F0E9494058BE092E00E94FD0093
:10112000813409F0C0C02A9A2C9A2B9810920A0296
:10113000109209026091090270910A026A307105E9
:101140000CF042C06F5F7F4F8D2D9C2D0E941704C5
:1011500061E571E0C7010E9469046D2D7C2DC70116
:101160000E94C3030E949F03BC01CE01895B9F4F75
:101170000E944F04CE01895B9F4F0E94A802CE01BE
:10118000895B9F4F0E94F702C7010E94F7028D2DD5
:101190009C2D0E94F7028091090290910A0201960B
:1011A00090930A0280930902C5CF84E023CF9E303A
:1011B00040F42850310981E001C0880F2A95EAF7F0
:1011C00037CF2E503109F7CF82E691E00E948B0293
:1011D0000091090210910A0268EA72E0C7010E94B8
:1011E0004F04B801C7010E94FF02C7010E94F70225
:1011F0000E949E00882309F449C0D701E0E41D92B3
:10120000EA95E9F70E948E00882E0E949E008823AE
:10121000E1F30E948E0090E0982F8827880E992E87
:10122000911C0E94CE012B013C01170110E000E04F
:101230008016910609F07EC02A81293009F0ADC0E0
:101240008B816091B0020E94A60AB0E49B9FC0010E
:101250001124D7018E199F099C012A0F3B1FE09191
:10126000B202F091B302E20FF31F2D912083AA1670
:10127000BB0691F78981811109C082E00E94B1000B
:1012800089E00E94B10080E00E94B100E0E0F0E05F
:10129000EF2B09F40FCF0E942B01882309F40ACF0A
:1012A0000E94000007CF823409F0A2CF2A982C9820
:1012B0002B9A10920A021092090260910902709111
:1012C0000A026A3071059CF56F5F7F4F8D2D9C2D52
:1012D0000E94170465E871E0C7010E9469046D2D42
:1012E0007C2DC7010E94C3030E949F03BC01CE0155
:1012F000895B9F4F0E944F04CE01895B9F4F0E94E4
:10130000A802CE01895B9F4F0E94F702C7010E948D
:10131000F7028D2D9C2D0E94F70280910902909179
:101320000A02019690930A0280930902C6CF87E9C8
:1013300091E04CCF0E94CE01641975098609970986
:101340006B3071058105910508F0A0CF0E949E00C9
:1013500081110BC00E94CE01641975098609970995
:101360006B3071058105910588F30E94CE016419E7
:101370007509860997096B3071058105910508F09B
:1013800057CF0E948E00D1018D931D010E94CE0186
:101390002B013C010F5F1F4F4BCF233109F076CF5C
:1013A0008981811173CF8B818A50990B6091B10231
:1013B00070E00E94B20A8C0186E0000F111F8A952E
:1013C000E1F7E091B402F091B502E00FF11F82E085
:1013D0008083E091B402F091B502E00FF11F218308
:1013E000E091B402F091B502E00FF11F12828C81FE
:1013F000E091B402F091B502E00FF11F838380E425
:101400000E94B10080E00E94B100912C812CE091FB
:10141000B402F091B502E80DF91DE00FF11F8081D3
:101420000E94B1009FEF891A990AA0E48A169104DC
:1014300071F78D81882309F429CF90E080E0E09155
:10144000B402F091B502E80FF91FE00FF11F10820E
:1014500001968034910599F719CF88EA92E00E94AD
:10146000F7028091B8029091B902009711F00C94A4
:101470007C0B0895BB274A3031F4992322F4BDE256
:10148000909581959F4F0C94460ABB27FB015527E9
:10149000AA27880F991FAA1FA41710F0A41B8395D1
:1014A0005051B9F7A05DAA3308F0A95DA193009748
:1014B00079F7B111B1931192CB010C945F0ADC0161
:1014C000FC01672F71917723E1F7329704C07C917B
:1014D0006D9370836291AE17BF07C8F308952F9282
:1014E0003F924F925F926F927F928F929F92AF92B4
:1014F000BF92CF92DF92EF92FF920F931F93CF9301
:10150000DF93CDB7DEB7CA1BDB0B0FB6F894DEBF97
:101510000FBECDBF09942A88398848885F846E84BD
:101520007D848C849B84AA84B984C884DF80EE8007
:10153000FD800C811B81AA81B981CE0FD11D0FB610
:10154000F894DEBF0FBECDBFED010895991B79E081
:1015500004C0991F961708F0961B881F7A95C9F743
:101560008095089597FB072E16F4009407D077FD19
:1015700009D00E94C60A07FC05D03EF490958195DB
:101580009F4F0895709561957F4F0895AA1BBB1BCF
:1015900051E107C0AA1FBB1FA617B70710F0A61B73
:1015A000B70B881F991F5A95A9F780959095BC0194
:1015B000CD010895EE0FFF1F0590F491E02D0994E1
:1015C0000F931F93CF93DF938230910510F482E045
:1015D00090E0E091BE02F091BF0230E020E0B0E088
:1015E000A0E0309799F42115310509F44AC0281B71
:1015F000390B24303105D8F58A819B81611571053D
:1016000089F1FB0193838283FE0111C040815181E6
:101610000281138148175907E0F04817590799F4D8
:10162000109761F012960C93129713961C933296B2
:10163000CF01DF91CF911F910F9108950093BE02CA
:101640001093BF02F4CF2115310551F04217530713
:1016500038F0A901DB019A01BD01DF01F801C1CF1A
:10166000EF01F9CF9093BF028093BE02CDCFFE0170
:10167000E20FF31F8193919322503109398328831C
:10168000D7CF2091BC023091BD02232B41F4209191
:101690000201309103013093BD022093BC022091DE
:1016A0000001309101012115310541F42DB73EB7FC
:1016B0004091040150910501241B350BE091BC02BF
:1016C000F091BD02E217F307A0F42E1B3F0B281781
:1016D000390778F0AC014E5F5F4F2417350748F0AB
:1016E0004E0F5F1F5093BD024093BC0281939193B4
:1016F0009FCFF0E0E0E09CCFCF93DF930097E9F03D
:10170000FC01329713821282A091BE02B091BF02F7
:10171000ED0130E020E01097A1F420813181820FAB
:10172000931F2091BC023091BD022817390709F0A0
:1017300061C0F093BD02E093BC02DF91CF910895A8
:10174000EA01CE17DF07E8F54A815B819E0141156A
:101750005105B1F7E901FB83EA8349915991C40F1F
:10176000D51FEC17FD0761F4808191810296840FEB
:10177000951FE90199838883828193819B838A8362
:10178000F0E0E0E012968D919C9113970097B9F5E7
:101790002D913C911197CD010296820F931F2091BC
:1017A000BC023091BD022817390739F6309751F540
:1017B0001092BF021092BE02B093BD02A093BC0271
:1017C000BCCFD383C28340815181840F951FC8173A
:1017D000D90761F44E5F5F4F88819981480F591F87
:1017E000518340838A819B819383828321153105B4
:1017F00009F0B0CFF093BF02E093BE029ECFFD018F
:10180000DC01C0CF13821282D7CFB0E0A0E0EBE0C2
:10181000FCE00C94710A8C01009751F4CB010E94FA
:10182000E00A8C01C801CDB7DEB7E0E10C948D0A67
:10183000FC01E60FF71F9C0122503109E217F30764
:1018400008F49DC0D901CD91DC911197C617D70737
:1018500098F0C530D10530F3CE010497861797076D
:1018600008F3C61BD70B2297C193D1936D937C933A
:10187000CF010E947C0BD6CF5B01AC1ABD0A4C0194
:101880008C0E9D1EA091BE02B091BF02512C412C26
:10189000F12CE12C109731F58091BC029091BD02A2
:1018A0008815990509F05CC04616570608F058C01F
:1018B0008091000190910101009741F48DB79EB78E
:1018C0004091040150910501841B950BE817F9071D
:1018D00008F055C0F093BD02E093BC02F90171839A
:1018E0006083A0CF8D919C91119712966C90129766
:1018F00013967C901397A815B90559F56C0142E031
:10190000C40ED11CCA14DB0420F1AC014A195B09D6
:10191000DA011296159780F06282738251834083B8
:10192000D9016D937C93E114F10471F0D701139602
:10193000FC93EE93129776CF22968C0F9D1FF901A0
:1019400091838083F301EFCFF093BF02E093BE0257
:1019500069CF4816590608F42C017D01D3019ACFAE
:10196000CB010E94E00A7C01009749F0AE01B8016A
:101970000E94C20CC8010E947C0B870153CF10E06B
:1019800000E050CFFB01DC0102C001900D924150FC
:101990005040D8F70895FB01DC0101900D92002022
:1019A000E1F70895FB01DC014150504048F00190FF
:1019B0000D920020C9F701C01D9241505040E0F740
:1019C000089510E0C2E6D0E004C0FE010E94DA0AE9
:0C19D0002196C336D107C9F7F894FFCF69
:1019DC000000C0028000000000006101C100EE00A8
:1019EC00AE011F01FD00110100000000F301C10058
:1019FC008802F2014F026702DA010D0A002100424F
:101A0C006567696E6E696E6720746F2073656E64AE
:101A1C00206D6573736167657320746F204E585425
:101A2C00004D6F746F72205475726E6564204F6E2A
:101A3C0020005761746572206C6576656C27732085
:101A4C006C6F772C204D6F746F72205475726E65AD
:101A5C0064204F6E004D6F746F72205475726E65FA
:101A6C0064204F666620005761746572206C657641
:101A7C00656C277320486967682C204D6F746F72F2
:0C1A8C00205475726E6564204F66660081
:00000001FF
