:100000000C9434000C9451000C9451000C94510049
:100010000C9451000C9451000C9451000C9451001C
:100020000C9451000C9451000C9451000C9451000C
:100030000C9451000C9451000C9451000C945100FC
:100040000C9451000C9451000C9451000C945100EC
:100050000C9451000C9451000C9451000C945100DC
:100060000C9451000C94510011241FBECFEFD8E026
:10007000DEBFCDBF11E0A0E0B1E0E4E2F1E002C0FC
:1000800005900D92A834B107D9F721E0A8E4B1E0BA
:1000900001C01D92AF34B207E1F70E946E000C94CC
:1000A00090000C9400008093C4009093C50086E4F7
:1000B0008093C20088ED8093C10008958091C000B4
:1000C00087FFFCCF8091C60008952091C00025FFD6
:1000D000FCCFFC0180818093C600089587E690E004
:1000E0000E94530084B18D6184B9219887E690E025
:1000F0000E9453000E945E0080934C01813431F4D1
:100100002A9A2C9A2B9880E091E007C0823471F7EC
:100110002A982C982B9A83E291E00E946500E6CF02
:04012000F894FFCF81
:100124005761746572206C6576656C2773206C6FFB
:10013400772C204D6F746F72205475726E65642035
:100144004F6E005761746572206C6576656C277319
:1001540020486967682C204D6F746F722054757243
:080164006E6564204F66660021
:00000001FF
